{
  "contractName": "NFTMint",
  "abi": [
    {
      "inputs": [],
      "stateMutability": "nonpayable",
      "type": "constructor"
    },
    {
      "anonymous": false,
      "inputs": [
        {
          "indexed": true,
          "internalType": "address",
          "name": "owner",
          "type": "address"
        },
        {
          "indexed": true,
          "internalType": "address",
          "name": "approved",
          "type": "address"
        },
        {
          "indexed": true,
          "internalType": "uint256",
          "name": "tokenId",
          "type": "uint256"
        }
      ],
      "name": "Approval",
      "type": "event"
    },
    {
      "anonymous": false,
      "inputs": [
        {
          "indexed": true,
          "internalType": "address",
          "name": "owner",
          "type": "address"
        },
        {
          "indexed": true,
          "internalType": "address",
          "name": "operator",
          "type": "address"
        },
        {
          "indexed": false,
          "internalType": "bool",
          "name": "approved",
          "type": "bool"
        }
      ],
      "name": "ApprovalForAll",
      "type": "event"
    },
    {
      "anonymous": false,
      "inputs": [
        {
          "indexed": true,
          "internalType": "address",
          "name": "from",
          "type": "address"
        },
        {
          "indexed": true,
          "internalType": "address",
          "name": "to",
          "type": "address"
        },
        {
          "indexed": true,
          "internalType": "uint256",
          "name": "tokenId",
          "type": "uint256"
        }
      ],
      "name": "Transfer",
      "type": "event"
    },
    {
      "inputs": [
        {
          "internalType": "address",
          "name": "to",
          "type": "address"
        },
        {
          "internalType": "uint256",
          "name": "tokenId",
          "type": "uint256"
        }
      ],
      "name": "approve",
      "outputs": [],
      "stateMutability": "nonpayable",
      "type": "function"
    },
    {
      "inputs": [
        {
          "internalType": "address",
          "name": "owner",
          "type": "address"
        }
      ],
      "name": "balanceOf",
      "outputs": [
        {
          "internalType": "uint256",
          "name": "",
          "type": "uint256"
        }
      ],
      "stateMutability": "view",
      "type": "function",
      "constant": true
    },
    {
      "inputs": [
        {
          "internalType": "uint256",
          "name": "tokenId",
          "type": "uint256"
        }
      ],
      "name": "getApproved",
      "outputs": [
        {
          "internalType": "address",
          "name": "",
          "type": "address"
        }
      ],
      "stateMutability": "view",
      "type": "function",
      "constant": true
    },
    {
      "inputs": [
        {
          "internalType": "address",
          "name": "owner",
          "type": "address"
        },
        {
          "internalType": "address",
          "name": "operator",
          "type": "address"
        }
      ],
      "name": "isApprovedForAll",
      "outputs": [
        {
          "internalType": "bool",
          "name": "",
          "type": "bool"
        }
      ],
      "stateMutability": "view",
      "type": "function",
      "constant": true
    },
    {
      "inputs": [],
      "name": "name",
      "outputs": [
        {
          "internalType": "string",
          "name": "",
          "type": "string"
        }
      ],
      "stateMutability": "view",
      "type": "function",
      "constant": true
    },
    {
      "inputs": [
        {
          "internalType": "uint256",
          "name": "tokenId",
          "type": "uint256"
        }
      ],
      "name": "ownerOf",
      "outputs": [
        {
          "internalType": "address",
          "name": "",
          "type": "address"
        }
      ],
      "stateMutability": "view",
      "type": "function",
      "constant": true
    },
    {
      "inputs": [
        {
          "internalType": "address",
          "name": "from",
          "type": "address"
        },
        {
          "internalType": "address",
          "name": "to",
          "type": "address"
        },
        {
          "internalType": "uint256",
          "name": "tokenId",
          "type": "uint256"
        }
      ],
      "name": "safeTransferFrom",
      "outputs": [],
      "stateMutability": "nonpayable",
      "type": "function"
    },
    {
      "inputs": [
        {
          "internalType": "address",
          "name": "from",
          "type": "address"
        },
        {
          "internalType": "address",
          "name": "to",
          "type": "address"
        },
        {
          "internalType": "uint256",
          "name": "tokenId",
          "type": "uint256"
        },
        {
          "internalType": "bytes",
          "name": "_data",
          "type": "bytes"
        }
      ],
      "name": "safeTransferFrom",
      "outputs": [],
      "stateMutability": "nonpayable",
      "type": "function"
    },
    {
      "inputs": [
        {
          "internalType": "address",
          "name": "operator",
          "type": "address"
        },
        {
          "internalType": "bool",
          "name": "approved",
          "type": "bool"
        }
      ],
      "name": "setApprovalForAll",
      "outputs": [],
      "stateMutability": "nonpayable",
      "type": "function"
    },
    {
      "inputs": [
        {
          "internalType": "bytes4",
          "name": "interfaceId",
          "type": "bytes4"
        }
      ],
      "name": "supportsInterface",
      "outputs": [
        {
          "internalType": "bool",
          "name": "",
          "type": "bool"
        }
      ],
      "stateMutability": "view",
      "type": "function",
      "constant": true
    },
    {
      "inputs": [],
      "name": "symbol",
      "outputs": [
        {
          "internalType": "string",
          "name": "",
          "type": "string"
        }
      ],
      "stateMutability": "view",
      "type": "function",
      "constant": true
    },
    {
      "inputs": [
        {
          "internalType": "address",
          "name": "from",
          "type": "address"
        },
        {
          "internalType": "address",
          "name": "to",
          "type": "address"
        },
        {
          "internalType": "uint256",
          "name": "tokenId",
          "type": "uint256"
        }
      ],
      "name": "transferFrom",
      "outputs": [],
      "stateMutability": "nonpayable",
      "type": "function"
    },
    {
      "inputs": [
        {
          "internalType": "uint256",
          "name": "tokenId",
          "type": "uint256"
        }
      ],
      "name": "tokenURI",
      "outputs": [
        {
          "internalType": "string",
          "name": "",
          "type": "string"
        }
      ],
      "stateMutability": "view",
      "type": "function",
      "constant": true
    },
    {
      "inputs": [
        {
          "internalType": "address",
          "name": "_to",
          "type": "address"
        },
        {
          "internalType": "string",
          "name": "tokenURI_",
          "type": "string"
        }
      ],
      "name": "mint",
      "outputs": [],
      "stateMutability": "nonpayable",
      "type": "function"
    }
  ],
  "bytecode": "0x60806040523480156200001157600080fd5b506040518060400160405280600981526020017f5265636970654e465400000000000000000000000000000000000000000000008152506040518060400160405280600381526020017f5243500000000000000000000000000000000000000000000000000000000000815250816000908051906020019062000096929190620000b8565b508060019080519060200190620000af929190620000b8565b505050620001cc565b828054620000c69062000197565b90600052602060002090601f016020900481019282620000ea576000855562000136565b82601f106200010557805160ff191683800117855562000136565b8280016001018555821562000136579182015b828111156200013557825182559160200191906001019062000118565b5b50905062000145919062000149565b5090565b5b80821115620001645760008160009055506001016200014a565b5090565b7f4e487b7100000000000000000000000000000000000000000000000000000000600052602260045260246000fd5b60006002820490506001821680620001b057607f821691505b602082108103620001c657620001c562000168565b5b50919050565b612aff80620001dc6000396000f3fe608060405234801561001057600080fd5b50600436106100ea5760003560e01c806370a082311161008c578063b88d4fde11610066578063b88d4fde1461025b578063c87b56dd14610277578063d0def521146102a7578063e985e9c5146102c3576100ea565b806370a08231146101f157806395d89b4114610221578063a22cb4651461023f576100ea565b8063095ea7b3116100c8578063095ea7b31461016d57806323b872dd1461018957806342842e0e146101a55780636352211e146101c1576100ea565b806301ffc9a7146100ef57806306fdde031461011f578063081812fc1461013d575b600080fd5b610109600480360381019061010491906118f5565b6102f3565b604051610116919061193d565b60405180910390f35b6101276103d5565b60405161013491906119f1565b60405180910390f35b61015760048036038101906101529190611a49565b610467565b6040516101649190611ab7565b60405180910390f35b61018760048036038101906101829190611afe565b6104ec565b005b6101a3600480360381019061019e9190611b3e565b610603565b005b6101bf60048036038101906101ba9190611b3e565b610663565b005b6101db60048036038101906101d69190611a49565b610683565b6040516101e89190611ab7565b60405180910390f35b61020b60048036038101906102069190611b91565b610734565b6040516102189190611bcd565b60405180910390f35b6102296107eb565b60405161023691906119f1565b60405180910390f35b61025960048036038101906102549190611c14565b61087d565b005b61027560048036038101906102709190611d89565b610893565b005b610291600480360381019061028c9190611a49565b6108f5565b60405161029e91906119f1565b60405180910390f35b6102c160048036038101906102bc9190611ead565b610a67565b005b6102dd60048036038101906102d89190611f09565b610a98565b6040516102ea919061193d565b60405180910390f35b60007f80ac58cd000000000000000000000000000000000000000000000000000000007bffffffffffffffffffffffffffffffffffffffffffffffffffffffff1916827bffffffffffffffffffffffffffffffffffffffffffffffffffffffff191614806103be57507f5b5e139f000000000000000000000000000000000000000000000000000000007bffffffffffffffffffffffffffffffffffffffffffffffffffffffff1916827bffffffffffffffffffffffffffffffffffffffffffffffffffffffff1916145b806103ce57506103cd82610b2c565b5b9050919050565b6060600080546103e490611f78565b80601f016020809104026020016040519081016040528092919081815260200182805461041090611f78565b801561045d5780601f106104325761010080835404028352916020019161045d565b820191906000526020600020905b81548152906001019060200180831161044057829003601f168201915b5050505050905090565b600061047282610b96565b6104b1576040517f08c379a00000000000000000000000000000000000000000000000000000000081526004016104a89061201b565b60405180910390fd5b6004600083815260200190815260200160002060009054906101000a900473ffffffffffffffffffffffffffffffffffffffff169050919050565b60006104f782610683565b90508073ffffffffffffffffffffffffffffffffffffffff168373ffffffffffffffffffffffffffffffffffffffff1603610567576040517f08c379a000000000000000000000000000000000000000000000000000000000815260040161055e906120ad565b60405180910390fd5b8073ffffffffffffffffffffffffffffffffffffffff16610586610c02565b73ffffffffffffffffffffffffffffffffffffffff1614806105b557506105b4816105af610c02565b610a98565b5b6105f4576040517f08c379a00000000000000000000000000000000000000000000000000000000081526004016105eb9061213f565b60405180910390fd5b6105fe8383610c0a565b505050565b61061461060e610c02565b82610cc3565b610653576040517f08c379a000000000000000000000000000000000000000000000000000000000815260040161064a906121d1565b60405180910390fd5b61065e838383610da1565b505050565b61067e83838360405180602001604052806000815250610893565b505050565b6000806002600084815260200190815260200160002060009054906101000a900473ffffffffffffffffffffffffffffffffffffffff169050600073ffffffffffffffffffffffffffffffffffffffff168173ffffffffffffffffffffffffffffffffffffffff160361072b576040517f08c379a000000000000000000000000000000000000000000000000000000000815260040161072290612263565b60405180910390fd5b80915050919050565b60008073ffffffffffffffffffffffffffffffffffffffff168273ffffffffffffffffffffffffffffffffffffffff16036107a4576040517f08c379a000000000000000000000000000000000000000000000000000000000815260040161079b906122f5565b60405180910390fd5b600360008373ffffffffffffffffffffffffffffffffffffffff1673ffffffffffffffffffffffffffffffffffffffff168152602001908152602001600020549050919050565b6060600180546107fa90611f78565b80601f016020809104026020016040519081016040528092919081815260200182805461082690611f78565b80156108735780601f1061084857610100808354040283529160200191610873565b820191906000526020600020905b81548152906001019060200180831161085657829003601f168201915b5050505050905090565b61088f610888610c02565b8383611007565b5050565b6108a461089e610c02565b83610cc3565b6108e3576040517f08c379a00000000000000000000000000000000000000000000000000000000081526004016108da906121d1565b60405180910390fd5b6108ef84848484611173565b50505050565b606061090082610b96565b61093f576040517f08c379a000000000000000000000000000000000000000000000000000000000815260040161093690612387565b60405180910390fd5b600060076000848152602001908152602001600020805461095f90611f78565b80601f016020809104026020016040519081016040528092919081815260200182805461098b90611f78565b80156109d85780601f106109ad576101008083540402835291602001916109d8565b820191906000526020600020905b8154815290600101906020018083116109bb57829003601f168201915b5050505050905060006109e96111cf565b905060008151036109fe578192505050610a62565b600082511115610a33578082604051602001610a1b9291906123e3565b60405160208183030381529060405292505050610a62565b80610a3d85611261565b604051602001610a4e9291906123e3565b604051602081830303815290604052925050505b919050565b610a7160066113c1565b6000610a7d60066113d7565b9050610a8983826113e5565b610a9381836115be565b505050565b6000600560008473ffffffffffffffffffffffffffffffffffffffff1673ffffffffffffffffffffffffffffffffffffffff16815260200190815260200160002060008373ffffffffffffffffffffffffffffffffffffffff1673ffffffffffffffffffffffffffffffffffffffff16815260200190815260200160002060009054906101000a900460ff16905092915050565b60007f01ffc9a7000000000000000000000000000000000000000000000000000000007bffffffffffffffffffffffffffffffffffffffffffffffffffffffff1916827bffffffffffffffffffffffffffffffffffffffffffffffffffffffff1916149050919050565b60008073ffffffffffffffffffffffffffffffffffffffff166002600084815260200190815260200160002060009054906101000a900473ffffffffffffffffffffffffffffffffffffffff1673ffffffffffffffffffffffffffffffffffffffff1614159050919050565b600033905090565b816004600083815260200190815260200160002060006101000a81548173ffffffffffffffffffffffffffffffffffffffff021916908373ffffffffffffffffffffffffffffffffffffffff160217905550808273ffffffffffffffffffffffffffffffffffffffff16610c7d83610683565b73ffffffffffffffffffffffffffffffffffffffff167f8c5be1e5ebec7d5bd14f71427d1e84f3dd0314c0f7b2291e5b200ac8c7c3b92560405160405180910390a45050565b6000610cce82610b96565b610d0d576040517f08c379a0000000000000000000000000000000000000000000000000000000008152600401610d0490612479565b60405180910390fd5b6000610d1883610683565b90508073ffffffffffffffffffffffffffffffffffffffff168473ffffffffffffffffffffffffffffffffffffffff161480610d8757508373ffffffffffffffffffffffffffffffffffffffff16610d6f84610467565b73ffffffffffffffffffffffffffffffffffffffff16145b80610d985750610d978185610a98565b5b91505092915050565b8273ffffffffffffffffffffffffffffffffffffffff16610dc182610683565b73ffffffffffffffffffffffffffffffffffffffff1614610e17576040517f08c379a0000000000000000000000000000000000000000000000000000000008152600401610e0e9061250b565b60405180910390fd5b600073ffffffffffffffffffffffffffffffffffffffff168273ffffffffffffffffffffffffffffffffffffffff1603610e86576040517f08c379a0000000000000000000000000000000000000000000000000000000008152600401610e7d9061259d565b60405180910390fd5b610e91838383611632565b610e9c600082610c0a565b6001600360008573ffffffffffffffffffffffffffffffffffffffff1673ffffffffffffffffffffffffffffffffffffffff1681526020019081526020016000206000828254610eec91906125ec565b925050819055506001600360008473ffffffffffffffffffffffffffffffffffffffff1673ffffffffffffffffffffffffffffffffffffffff1681526020019081526020016000206000828254610f439190612620565b92505081905550816002600083815260200190815260200160002060006101000a81548173ffffffffffffffffffffffffffffffffffffffff021916908373ffffffffffffffffffffffffffffffffffffffff160217905550808273ffffffffffffffffffffffffffffffffffffffff168473ffffffffffffffffffffffffffffffffffffffff167fddf252ad1be2c89b69c2b068fc378daa952ba7f163c4a11628f55a4df523b3ef60405160405180910390a4611002838383611637565b505050565b8173ffffffffffffffffffffffffffffffffffffffff168373ffffffffffffffffffffffffffffffffffffffff1603611075576040517f08c379a000000000000000000000000000000000000000000000000000000000815260040161106c906126c2565b60405180910390fd5b80600560008573ffffffffffffffffffffffffffffffffffffffff1673ffffffffffffffffffffffffffffffffffffffff16815260200190815260200160002060008473ffffffffffffffffffffffffffffffffffffffff1673ffffffffffffffffffffffffffffffffffffffff16815260200190815260200160002060006101000a81548160ff0219169083151502179055508173ffffffffffffffffffffffffffffffffffffffff168373ffffffffffffffffffffffffffffffffffffffff167f17307eab39ab6107e8899845ad3d59bd9653f200f220920489ca2b5937696c3183604051611166919061193d565b60405180910390a3505050565b61117e848484610da1565b61118a8484848461163c565b6111c9576040517f08c379a00000000000000000000000000000000000000000000000000000000081526004016111c090612754565b60405180910390fd5b50505050565b6060600880546111de90611f78565b80601f016020809104026020016040519081016040528092919081815260200182805461120a90611f78565b80156112575780601f1061122c57610100808354040283529160200191611257565b820191906000526020600020905b81548152906001019060200180831161123a57829003601f168201915b5050505050905090565b6060600082036112a8576040518060400160405280600181526020017f300000000000000000000000000000000000000000000000000000000000000081525090506113bc565b600082905060005b600082146112da5780806112c390612774565b915050600a826112d391906127eb565b91506112b0565b60008167ffffffffffffffff8111156112f6576112f5611c5e565b5b6040519080825280601f01601f1916602001820160405280156113285781602001600182028036833780820191505090505b5090505b600085146113b55760018261134191906125ec565b9150600a85611350919061281c565b603061135c9190612620565b60f81b8183815181106113725761137161284d565b5b60200101907effffffffffffffffffffffffffffffffffffffffffffffffffffffffffffff1916908160001a905350600a856113ae91906127eb565b945061132c565b8093505050505b919050565b6001816000016000828254019250508190555050565b600081600001549050919050565b600073ffffffffffffffffffffffffffffffffffffffff168273ffffffffffffffffffffffffffffffffffffffff1603611454576040517f08c379a000000000000000000000000000000000000000000000000000000000815260040161144b906128c8565b60405180910390fd5b61145d81610b96565b1561149d576040517f08c379a000000000000000000000000000000000000000000000000000000000815260040161149490612934565b60405180910390fd5b6114a960008383611632565b6001600360008473ffffffffffffffffffffffffffffffffffffffff1673ffffffffffffffffffffffffffffffffffffffff16815260200190815260200160002060008282546114f99190612620565b92505081905550816002600083815260200190815260200160002060006101000a81548173ffffffffffffffffffffffffffffffffffffffff021916908373ffffffffffffffffffffffffffffffffffffffff160217905550808273ffffffffffffffffffffffffffffffffffffffff16600073ffffffffffffffffffffffffffffffffffffffff167fddf252ad1be2c89b69c2b068fc378daa952ba7f163c4a11628f55a4df523b3ef60405160405180910390a46115ba60008383611637565b5050565b6115c782610b96565b611606576040517f08c379a00000000000000000000000000000000000000000000000000000000081526004016115fd906129c6565b60405180910390fd5b8060076000848152602001908152602001600020908051906020019061162d9291906117e6565b505050565b505050565b505050565b600061165d8473ffffffffffffffffffffffffffffffffffffffff166117c3565b156117b6578373ffffffffffffffffffffffffffffffffffffffff1663150b7a02611686610c02565b8786866040518563ffffffff1660e01b81526004016116a89493929190612a3b565b6020604051808303816000875af19250505080156116e457506040513d601f19601f820116820180604052508101906116e19190612a9c565b60015b611766573d8060008114611714576040519150601f19603f3d011682016040523d82523d6000602084013e611719565b606091505b50600081510361175e576040517f08c379a000000000000000000000000000000000000000000000000000000000815260040161175590612754565b60405180910390fd5b805181602001fd5b63150b7a0260e01b7bffffffffffffffffffffffffffffffffffffffffffffffffffffffff1916817bffffffffffffffffffffffffffffffffffffffffffffffffffffffff1916149150506117bb565b600190505b949350505050565b6000808273ffffffffffffffffffffffffffffffffffffffff163b119050919050565b8280546117f290611f78565b90600052602060002090601f016020900481019282611814576000855561185b565b82601f1061182d57805160ff191683800117855561185b565b8280016001018555821561185b579182015b8281111561185a57825182559160200191906001019061183f565b5b509050611868919061186c565b5090565b5b8082111561188557600081600090555060010161186d565b5090565b6000604051905090565b600080fd5b600080fd5b60007fffffffff0000000000000000000000000000000000000000000000000000000082169050919050565b6118d28161189d565b81146118dd57600080fd5b50565b6000813590506118ef816118c9565b92915050565b60006020828403121561190b5761190a611893565b5b6000611919848285016118e0565b91505092915050565b60008115159050919050565b61193781611922565b82525050565b6000602082019050611952600083018461192e565b92915050565b600081519050919050565b600082825260208201905092915050565b60005b83811015611992578082015181840152602081019050611977565b838111156119a1576000848401525b50505050565b6000601f19601f8301169050919050565b60006119c382611958565b6119cd8185611963565b93506119dd818560208601611974565b6119e6816119a7565b840191505092915050565b60006020820190508181036000830152611a0b81846119b8565b905092915050565b6000819050919050565b611a2681611a13565b8114611a3157600080fd5b50565b600081359050611a4381611a1d565b92915050565b600060208284031215611a5f57611a5e611893565b5b6000611a6d84828501611a34565b91505092915050565b600073ffffffffffffffffffffffffffffffffffffffff82169050919050565b6000611aa182611a76565b9050919050565b611ab181611a96565b82525050565b6000602082019050611acc6000830184611aa8565b92915050565b611adb81611a96565b8114611ae657600080fd5b50565b600081359050611af881611ad2565b92915050565b60008060408385031215611b1557611b14611893565b5b6000611b2385828601611ae9565b9250506020611b3485828601611a34565b9150509250929050565b600080600060608486031215611b5757611b56611893565b5b6000611b6586828701611ae9565b9350506020611b7686828701611ae9565b9250506040611b8786828701611a34565b9150509250925092565b600060208284031215611ba757611ba6611893565b5b6000611bb584828501611ae9565b91505092915050565b611bc781611a13565b82525050565b6000602082019050611be26000830184611bbe565b92915050565b611bf181611922565b8114611bfc57600080fd5b50565b600081359050611c0e81611be8565b92915050565b60008060408385031215611c2b57611c2a611893565b5b6000611c3985828601611ae9565b9250506020611c4a85828601611bff565b9150509250929050565b600080fd5b600080fd5b7f4e487b7100000000000000000000000000000000000000000000000000000000600052604160045260246000fd5b611c96826119a7565b810181811067ffffffffffffffff82111715611cb557611cb4611c5e565b5b80604052505050565b6000611cc8611889565b9050611cd48282611c8d565b919050565b600067ffffffffffffffff821115611cf457611cf3611c5e565b5b611cfd826119a7565b9050602081019050919050565b82818337600083830152505050565b6000611d2c611d2784611cd9565b611cbe565b905082815260208101848484011115611d4857611d47611c59565b5b611d53848285611d0a565b509392505050565b600082601f830112611d7057611d6f611c54565b5b8135611d80848260208601611d19565b91505092915050565b60008060008060808587031215611da357611da2611893565b5b6000611db187828801611ae9565b9450506020611dc287828801611ae9565b9350506040611dd387828801611a34565b925050606085013567ffffffffffffffff811115611df457611df3611898565b5b611e0087828801611d5b565b91505092959194509250565b600067ffffffffffffffff821115611e2757611e26611c5e565b5b611e30826119a7565b9050602081019050919050565b6000611e50611e4b84611e0c565b611cbe565b905082815260208101848484011115611e6c57611e6b611c59565b5b611e77848285611d0a565b509392505050565b600082601f830112611e9457611e93611c54565b5b8135611ea4848260208601611e3d565b91505092915050565b60008060408385031215611ec457611ec3611893565b5b6000611ed285828601611ae9565b925050602083013567ffffffffffffffff811115611ef357611ef2611898565b5b611eff85828601611e7f565b9150509250929050565b60008060408385031215611f2057611f1f611893565b5b6000611f2e85828601611ae9565b9250506020611f3f85828601611ae9565b9150509250929050565b7f4e487b7100000000000000000000000000000000000000000000000000000000600052602260045260246000fd5b60006002820490506001821680611f9057607f821691505b602082108103611fa357611fa2611f49565b5b50919050565b7f4552433732313a20617070726f76656420717565727920666f72206e6f6e657860008201527f697374656e7420746f6b656e0000000000000000000000000000000000000000602082015250565b6000612005602c83611963565b915061201082611fa9565b604082019050919050565b6000602082019050818103600083015261203481611ff8565b9050919050565b7f4552433732313a20617070726f76616c20746f2063757272656e74206f776e6560008201527f7200000000000000000000000000000000000000000000000000000000000000602082015250565b6000612097602183611963565b91506120a28261203b565b604082019050919050565b600060208201905081810360008301526120c68161208a565b9050919050565b7f4552433732313a20617070726f76652063616c6c6572206973206e6f74206f7760008201527f6e6572206e6f7220617070726f76656420666f7220616c6c0000000000000000602082015250565b6000612129603883611963565b9150612134826120cd565b604082019050919050565b600060208201905081810360008301526121588161211c565b9050919050565b7f4552433732313a207472616e736665722063616c6c6572206973206e6f74206f60008201527f776e6572206e6f7220617070726f766564000000000000000000000000000000602082015250565b60006121bb603183611963565b91506121c68261215f565b604082019050919050565b600060208201905081810360008301526121ea816121ae565b9050919050565b7f4552433732313a206f776e657220717565727920666f72206e6f6e657869737460008201527f656e7420746f6b656e0000000000000000000000000000000000000000000000602082015250565b600061224d602983611963565b9150612258826121f1565b604082019050919050565b6000602082019050818103600083015261227c81612240565b9050919050565b7f4552433732313a2062616c616e636520717565727920666f7220746865207a6560008201527f726f206164647265737300000000000000000000000000000000000000000000602082015250565b60006122df602a83611963565b91506122ea82612283565b604082019050919050565b6000602082019050818103600083015261230e816122d2565b9050919050565b7f4552433732314d657461646174613a2055524920717565727920666f72206e6f60008201527f6e6578697374656e7420746f6b656e0000000000000000000000000000000000602082015250565b6000612371602f83611963565b915061237c82612315565b604082019050919050565b600060208201905081810360008301526123a081612364565b9050919050565b600081905092915050565b60006123bd82611958565b6123c781856123a7565b93506123d7818560208601611974565b80840191505092915050565b60006123ef82856123b2565b91506123fb82846123b2565b91508190509392505050565b7f4552433732313a206f70657261746f7220717565727920666f72206e6f6e657860008201527f697374656e7420746f6b656e0000000000000000000000000000000000000000602082015250565b6000612463602c83611963565b915061246e82612407565b604082019050919050565b6000602082019050818103600083015261249281612456565b9050919050565b7f4552433732313a207472616e736665722066726f6d20696e636f72726563742060008201527f6f776e6572000000000000000000000000000000000000000000000000000000602082015250565b60006124f5602583611963565b915061250082612499565b604082019050919050565b60006020820190508181036000830152612524816124e8565b9050919050565b7f4552433732313a207472616e7366657220746f20746865207a65726f2061646460008201527f7265737300000000000000000000000000000000000000000000000000000000602082015250565b6000612587602483611963565b91506125928261252b565b604082019050919050565b600060208201905081810360008301526125b68161257a565b9050919050565b7f4e487b7100000000000000000000000000000000000000000000000000000000600052601160045260246000fd5b60006125f782611a13565b915061260283611a13565b925082821015612615576126146125bd565b5b828203905092915050565b600061262b82611a13565b915061263683611a13565b9250827fffffffffffffffffffffffffffffffffffffffffffffffffffffffffffffffff0382111561266b5761266a6125bd565b5b828201905092915050565b7f4552433732313a20617070726f766520746f2063616c6c657200000000000000600082015250565b60006126ac601983611963565b91506126b782612676565b602082019050919050565b600060208201905081810360008301526126db8161269f565b9050919050565b7f4552433732313a207472616e7366657220746f206e6f6e20455243373231526560008201527f63656976657220696d706c656d656e7465720000000000000000000000000000602082015250565b600061273e603283611963565b9150612749826126e2565b604082019050919050565b6000602082019050818103600083015261276d81612731565b9050919050565b600061277f82611a13565b91507fffffffffffffffffffffffffffffffffffffffffffffffffffffffffffffffff82036127b1576127b06125bd565b5b600182019050919050565b7f4e487b7100000000000000000000000000000000000000000000000000000000600052601260045260246000fd5b60006127f682611a13565b915061280183611a13565b925082612811576128106127bc565b5b828204905092915050565b600061282782611a13565b915061283283611a13565b925082612842576128416127bc565b5b828206905092915050565b7f4e487b7100000000000000000000000000000000000000000000000000000000600052603260045260246000fd5b7f4552433732313a206d696e7420746f20746865207a65726f2061646472657373600082015250565b60006128b2602083611963565b91506128bd8261287c565b602082019050919050565b600060208201905081810360008301526128e1816128a5565b9050919050565b7f4552433732313a20746f6b656e20616c7265616479206d696e74656400000000600082015250565b600061291e601c83611963565b9150612929826128e8565b602082019050919050565b6000602082019050818103600083015261294d81612911565b9050919050565b7f4552433732314d657461646174613a2055524920736574206f66206e6f6e657860008201527f697374656e7420746f6b656e0000000000000000000000000000000000000000602082015250565b60006129b0602c83611963565b91506129bb82612954565b604082019050919050565b600060208201905081810360008301526129df816129a3565b9050919050565b600081519050919050565b600082825260208201905092915050565b6000612a0d826129e6565b612a1781856129f1565b9350612a27818560208601611974565b612a30816119a7565b840191505092915050565b6000608082019050612a506000830187611aa8565b612a5d6020830186611aa8565b612a6a6040830185611bbe565b8181036060830152612a7c8184612a02565b905095945050505050565b600081519050612a96816118c9565b92915050565b600060208284031215612ab257612ab1611893565b5b6000612ac084828501612a87565b9150509291505056fea26469706673582212203e73bed1c8f9c423fb8b4d657ce377992917cef6bc05f4ee7fe585c2fb12eab064736f6c634300080d0033",
  "immutableReferences": {},
  "source": "// SPDX-License-Identifier: MIT\npragma solidity ^0.8.0;\n\nimport \"@openzeppelin/contracts/token/ERC721/ERC721.sol\";\nimport \"@openzeppelin/contracts/utils/Counters.sol\";\n\ncontract NFTMint is ERC721 {\n    using Strings for uint256;\n    using Counters for Counters.Counter;\n    \n    Counters.Counter private _tokenIds;\n    \n    // Optional mapping for token URIs\n    mapping (uint256 => string) private _tokenURIs;\n\n    // Base URI\n    string private _baseURIextended;\n\n\n    constructor()\n        ERC721(\"RecipeNFT\", \"RCP\"){\n\n        }\n    \n    function _setTokenURI(uint256 tokenId, string memory _tokenURI) internal virtual {\n        require(_exists(tokenId), \"ERC721Metadata: URI set of nonexistent token\");\n        _tokenURIs[tokenId] = _tokenURI;\n    }\n\n    function _baseURI() internal view virtual override returns (string memory) {\n        return _baseURIextended;\n    }\n    \n    function tokenURI(uint256 tokenId) public view virtual override returns (string memory) {\n        require(_exists(tokenId), \"ERC721Metadata: URI query for nonexistent token\");\n\n        string memory _tokenURI = _tokenURIs[tokenId];\n        string memory base = _baseURI();\n        \n        // If there is no base URI, return the token URI.\n        if (bytes(base).length == 0) {\n            return _tokenURI;\n        }\n        // If both are set, concatenate the baseURI and tokenURI (via abi.encodePacked).\n        if (bytes(_tokenURI).length > 0) {\n            return string(abi.encodePacked(base, _tokenURI));\n        }\n        // If there is a baseURI but no tokenURI, concatenate the tokenID to the baseURI.\n        return string(abi.encodePacked(base, tokenId.toString()));\n    }\n    \n    // note: may want to add access control (https://docs.openzeppelin.com/contracts/3.x/access-control) to restrict to MINTER_ROLE \n    function mint(\n        address _to,\n        string memory tokenURI_\n    ) public {\n        _tokenIds.increment();\n\n        uint256 newItemId = _tokenIds.current();\n        \n        _mint(_to, newItemId);\n        _setTokenURI(newItemId, tokenURI_);\n    }\n}",
  "sourcePath": "/Users/jjarzemsky/Desktop/Grad school/blockchain/final-project/nft-recipes/Truffle/contracts/NFTMint.sol",
  "compiler": {
    "name": "solc",
    "version": "0.8.13+commit.abaa5c0e.Emscripten.clang"
  },
  "schemaVersion": "3.4.5",
  "updatedAt": "2022-03-21T00:01:05.111Z",
  "networkType": "ethereum",
  "devdoc": {
    "kind": "dev",
    "methods": {
      "approve(address,uint256)": {
        "details": "See {IERC721-approve}."
      },
      "balanceOf(address)": {
        "details": "See {IERC721-balanceOf}."
      },
      "getApproved(uint256)": {
        "details": "See {IERC721-getApproved}."
      },
      "isApprovedForAll(address,address)": {
        "details": "See {IERC721-isApprovedForAll}."
      },
      "name()": {
        "details": "See {IERC721Metadata-name}."
      },
      "ownerOf(uint256)": {
        "details": "See {IERC721-ownerOf}."
      },
      "safeTransferFrom(address,address,uint256)": {
        "details": "See {IERC721-safeTransferFrom}."
      },
      "safeTransferFrom(address,address,uint256,bytes)": {
        "details": "See {IERC721-safeTransferFrom}."
      },
      "setApprovalForAll(address,bool)": {
        "details": "See {IERC721-setApprovalForAll}."
      },
      "supportsInterface(bytes4)": {
        "details": "See {IERC165-supportsInterface}."
      },
      "symbol()": {
        "details": "See {IERC721Metadata-symbol}."
      },
      "tokenURI(uint256)": {
        "details": "See {IERC721Metadata-tokenURI}."
      },
      "transferFrom(address,address,uint256)": {
        "details": "See {IERC721-transferFrom}."
      }
    },
    "version": 1
  },
  "userdoc": {
    "kind": "user",
    "methods": {},
    "version": 1
  }
}