{
  "contractName": "NFTMint",
  "abi": [
    {
      "inputs": [],
      "stateMutability": "nonpayable",
      "type": "constructor"
    },
    {
      "anonymous": false,
      "inputs": [
        {
          "indexed": true,
          "internalType": "address",
          "name": "owner",
          "type": "address"
        },
        {
          "indexed": true,
          "internalType": "address",
          "name": "approved",
          "type": "address"
        },
        {
          "indexed": true,
          "internalType": "uint256",
          "name": "tokenId",
          "type": "uint256"
        }
      ],
      "name": "Approval",
      "type": "event"
    },
    {
      "anonymous": false,
      "inputs": [
        {
          "indexed": true,
          "internalType": "address",
          "name": "owner",
          "type": "address"
        },
        {
          "indexed": true,
          "internalType": "address",
          "name": "operator",
          "type": "address"
        },
        {
          "indexed": false,
          "internalType": "bool",
          "name": "approved",
          "type": "bool"
        }
      ],
      "name": "ApprovalForAll",
      "type": "event"
    },
    {
      "anonymous": false,
      "inputs": [
        {
          "indexed": true,
          "internalType": "address",
          "name": "from",
          "type": "address"
        },
        {
          "indexed": true,
          "internalType": "address",
          "name": "to",
          "type": "address"
        },
        {
          "indexed": true,
          "internalType": "uint256",
          "name": "tokenId",
          "type": "uint256"
        }
      ],
      "name": "Transfer",
      "type": "event"
    },
    {
      "inputs": [
        {
          "internalType": "address",
          "name": "to",
          "type": "address"
        },
        {
          "internalType": "uint256",
          "name": "tokenId",
          "type": "uint256"
        }
      ],
      "name": "approve",
      "outputs": [],
      "stateMutability": "nonpayable",
      "type": "function"
    },
    {
      "inputs": [
        {
          "internalType": "address",
          "name": "owner",
          "type": "address"
        }
      ],
      "name": "balanceOf",
      "outputs": [
        {
          "internalType": "uint256",
          "name": "",
          "type": "uint256"
        }
      ],
      "stateMutability": "view",
      "type": "function",
      "constant": true
    },
    {
      "inputs": [
        {
          "internalType": "uint256",
          "name": "tokenId",
          "type": "uint256"
        }
      ],
      "name": "getApproved",
      "outputs": [
        {
          "internalType": "address",
          "name": "",
          "type": "address"
        }
      ],
      "stateMutability": "view",
      "type": "function",
      "constant": true
    },
    {
      "inputs": [
        {
          "internalType": "address",
          "name": "owner",
          "type": "address"
        },
        {
          "internalType": "address",
          "name": "operator",
          "type": "address"
        }
      ],
      "name": "isApprovedForAll",
      "outputs": [
        {
          "internalType": "bool",
          "name": "",
          "type": "bool"
        }
      ],
      "stateMutability": "view",
      "type": "function",
      "constant": true
    },
    {
      "inputs": [],
      "name": "name",
      "outputs": [
        {
          "internalType": "string",
          "name": "",
          "type": "string"
        }
      ],
      "stateMutability": "view",
      "type": "function",
      "constant": true
    },
    {
      "inputs": [
        {
          "internalType": "uint256",
          "name": "tokenId",
          "type": "uint256"
        }
      ],
      "name": "ownerOf",
      "outputs": [
        {
          "internalType": "address",
          "name": "",
          "type": "address"
        }
      ],
      "stateMutability": "view",
      "type": "function",
      "constant": true
    },
    {
      "inputs": [
        {
          "internalType": "address",
          "name": "from",
          "type": "address"
        },
        {
          "internalType": "address",
          "name": "to",
          "type": "address"
        },
        {
          "internalType": "uint256",
          "name": "tokenId",
          "type": "uint256"
        }
      ],
      "name": "safeTransferFrom",
      "outputs": [],
      "stateMutability": "nonpayable",
      "type": "function"
    },
    {
      "inputs": [
        {
          "internalType": "address",
          "name": "from",
          "type": "address"
        },
        {
          "internalType": "address",
          "name": "to",
          "type": "address"
        },
        {
          "internalType": "uint256",
          "name": "tokenId",
          "type": "uint256"
        },
        {
          "internalType": "bytes",
          "name": "_data",
          "type": "bytes"
        }
      ],
      "name": "safeTransferFrom",
      "outputs": [],
      "stateMutability": "nonpayable",
      "type": "function"
    },
    {
      "inputs": [
        {
          "internalType": "address",
          "name": "operator",
          "type": "address"
        },
        {
          "internalType": "bool",
          "name": "approved",
          "type": "bool"
        }
      ],
      "name": "setApprovalForAll",
      "outputs": [],
      "stateMutability": "nonpayable",
      "type": "function"
    },
    {
      "inputs": [
        {
          "internalType": "bytes4",
          "name": "interfaceId",
          "type": "bytes4"
        }
      ],
      "name": "supportsInterface",
      "outputs": [
        {
          "internalType": "bool",
          "name": "",
          "type": "bool"
        }
      ],
      "stateMutability": "view",
      "type": "function",
      "constant": true
    },
    {
      "inputs": [],
      "name": "symbol",
      "outputs": [
        {
          "internalType": "string",
          "name": "",
          "type": "string"
        }
      ],
      "stateMutability": "view",
      "type": "function",
      "constant": true
    },
    {
      "inputs": [
        {
          "internalType": "address",
          "name": "from",
          "type": "address"
        },
        {
          "internalType": "address",
          "name": "to",
          "type": "address"
        },
        {
          "internalType": "uint256",
          "name": "tokenId",
          "type": "uint256"
        }
      ],
      "name": "transferFrom",
      "outputs": [],
      "stateMutability": "nonpayable",
      "type": "function"
    },
    {
      "inputs": [],
      "name": "getMessage",
      "outputs": [
        {
          "internalType": "string",
          "name": "",
          "type": "string"
        }
      ],
      "stateMutability": "view",
      "type": "function",
      "constant": true
    },
    {
      "inputs": [
        {
          "internalType": "uint256",
          "name": "tokenId",
          "type": "uint256"
        }
      ],
      "name": "tokenURI",
      "outputs": [
        {
          "internalType": "string",
          "name": "",
          "type": "string"
        }
      ],
      "stateMutability": "view",
      "type": "function",
      "constant": true
    },
    {
      "inputs": [
        {
          "internalType": "address",
          "name": "_to",
          "type": "address"
        },
        {
          "internalType": "uint256",
          "name": "_tokenId",
          "type": "uint256"
        },
        {
          "internalType": "string",
          "name": "tokenURI_",
          "type": "string"
        }
      ],
      "name": "mint",
      "outputs": [],
      "stateMutability": "nonpayable",
      "type": "function"
    }
  ],
  "bytecode": "0x60806040526040518060400160405280600b81526020017f68656c6c6f20776f726c64000000000000000000000000000000000000000000815250600790805190602001906200005192919062000106565b503480156200005f57600080fd5b506040518060400160405280600981526020017f5265636970654e465400000000000000000000000000000000000000000000008152506040518060400160405280600381526020017f52435000000000000000000000000000000000000000000000000000000000008152508160009080519060200190620000e492919062000106565b508060019080519060200190620000fd92919062000106565b5050506200021b565b8280546200011490620001e5565b90600052602060002090601f01602090048101928262000138576000855562000184565b82601f106200015357805160ff191683800117855562000184565b8280016001018555821562000184579182015b828111156200018357825182559160200191906001019062000166565b5b50905062000193919062000197565b5090565b5b80821115620001b257600081600090555060010162000198565b5090565b7f4e487b7100000000000000000000000000000000000000000000000000000000600052602260045260246000fd5b60006002820490506001821680620001fe57607f821691505b60208210811415620002155762000214620001b6565b5b50919050565b612b9c806200022b6000396000f3fe608060405234801561001057600080fd5b50600436106100f55760003560e01c806370a0823111610097578063c87b56dd11610066578063c87b56dd14610282578063ce6d41de146102b2578063d3fc9864146102d0578063e985e9c5146102ec576100f5565b806370a08231146101fc57806395d89b411461022c578063a22cb4651461024a578063b88d4fde14610266576100f5565b8063095ea7b3116100d3578063095ea7b31461017857806323b872dd1461019457806342842e0e146101b05780636352211e146101cc576100f5565b806301ffc9a7146100fa57806306fdde031461012a578063081812fc14610148575b600080fd5b610114600480360381019061010f919061197d565b61031c565b60405161012191906119c5565b60405180910390f35b6101326103fe565b60405161013f9190611a79565b60405180910390f35b610162600480360381019061015d9190611ad1565b610490565b60405161016f9190611b3f565b60405180910390f35b610192600480360381019061018d9190611b86565b610515565b005b6101ae60048036038101906101a99190611bc6565b61062d565b005b6101ca60048036038101906101c59190611bc6565b61068d565b005b6101e660048036038101906101e19190611ad1565b6106ad565b6040516101f39190611b3f565b60405180910390f35b61021660048036038101906102119190611c19565b61075f565b6040516102239190611c55565b60405180910390f35b610234610817565b6040516102419190611a79565b60405180910390f35b610264600480360381019061025f9190611c9c565b6108a9565b005b610280600480360381019061027b9190611e11565b6108bf565b005b61029c60048036038101906102979190611ad1565b610921565b6040516102a99190611a79565b60405180910390f35b6102ba610a94565b6040516102c79190611a79565b60405180910390f35b6102ea60048036038101906102e59190611f35565b610b26565b005b61030660048036038101906103019190611fa4565b610b3f565b60405161031391906119c5565b60405180910390f35b60007f80ac58cd000000000000000000000000000000000000000000000000000000007bffffffffffffffffffffffffffffffffffffffffffffffffffffffff1916827bffffffffffffffffffffffffffffffffffffffffffffffffffffffff191614806103e757507f5b5e139f000000000000000000000000000000000000000000000000000000007bffffffffffffffffffffffffffffffffffffffffffffffffffffffff1916827bffffffffffffffffffffffffffffffffffffffffffffffffffffffff1916145b806103f757506103f682610bd3565b5b9050919050565b60606000805461040d90612013565b80601f016020809104026020016040519081016040528092919081815260200182805461043990612013565b80156104865780601f1061045b57610100808354040283529160200191610486565b820191906000526020600020905b81548152906001019060200180831161046957829003601f168201915b5050505050905090565b600061049b82610c3d565b6104da576040517f08c379a00000000000000000000000000000000000000000000000000000000081526004016104d1906120b7565b60405180910390fd5b6004600083815260200190815260200160002060009054906101000a900473ffffffffffffffffffffffffffffffffffffffff169050919050565b6000610520826106ad565b90508073ffffffffffffffffffffffffffffffffffffffff168373ffffffffffffffffffffffffffffffffffffffff161415610591576040517f08c379a000000000000000000000000000000000000000000000000000000000815260040161058890612149565b60405180910390fd5b8073ffffffffffffffffffffffffffffffffffffffff166105b0610ca9565b73ffffffffffffffffffffffffffffffffffffffff1614806105df57506105de816105d9610ca9565b610b3f565b5b61061e576040517f08c379a0000000000000000000000000000000000000000000000000000000008152600401610615906121db565b60405180910390fd5b6106288383610cb1565b505050565b61063e610638610ca9565b82610d6a565b61067d576040517f08c379a00000000000000000000000000000000000000000000000000000000081526004016106749061226d565b60405180910390fd5b610688838383610e48565b505050565b6106a8838383604051806020016040528060008152506108bf565b505050565b6000806002600084815260200190815260200160002060009054906101000a900473ffffffffffffffffffffffffffffffffffffffff169050600073ffffffffffffffffffffffffffffffffffffffff168173ffffffffffffffffffffffffffffffffffffffff161415610756576040517f08c379a000000000000000000000000000000000000000000000000000000000815260040161074d906122ff565b60405180910390fd5b80915050919050565b60008073ffffffffffffffffffffffffffffffffffffffff168273ffffffffffffffffffffffffffffffffffffffff1614156107d0576040517f08c379a00000000000000000000000000000000000000000000000000000000081526004016107c790612391565b60405180910390fd5b600360008373ffffffffffffffffffffffffffffffffffffffff1673ffffffffffffffffffffffffffffffffffffffff168152602001908152602001600020549050919050565b60606001805461082690612013565b80601f016020809104026020016040519081016040528092919081815260200182805461085290612013565b801561089f5780601f106108745761010080835404028352916020019161089f565b820191906000526020600020905b81548152906001019060200180831161088257829003601f168201915b5050505050905090565b6108bb6108b4610ca9565b83836110af565b5050565b6108d06108ca610ca9565b83610d6a565b61090f576040517f08c379a00000000000000000000000000000000000000000000000000000000081526004016109069061226d565b60405180910390fd5b61091b8484848461121c565b50505050565b606061092c82610c3d565b61096b576040517f08c379a000000000000000000000000000000000000000000000000000000000815260040161096290612423565b60405180910390fd5b600060066000848152602001908152602001600020805461098b90612013565b80601f01602080910402602001604051908101604052809291908181526020018280546109b790612013565b8015610a045780601f106109d957610100808354040283529160200191610a04565b820191906000526020600020905b8154815290600101906020018083116109e757829003601f168201915b505050505090506000610a15611278565b9050600081511415610a2b578192505050610a8f565b600082511115610a60578082604051602001610a4892919061247f565b60405160208183030381529060405292505050610a8f565b80610a6a8561130a565b604051602001610a7b92919061247f565b604051602081830303815290604052925050505b919050565b606060078054610aa390612013565b80601f0160208091040260200160405190810160405280929190818152602001828054610acf90612013565b8015610b1c5780601f10610af157610100808354040283529160200191610b1c565b820191906000526020600020905b815481529060010190602001808311610aff57829003601f168201915b5050505050905090565b610b30838361146b565b610b3a8282611645565b505050565b6000600560008473ffffffffffffffffffffffffffffffffffffffff1673ffffffffffffffffffffffffffffffffffffffff16815260200190815260200160002060008373ffffffffffffffffffffffffffffffffffffffff1673ffffffffffffffffffffffffffffffffffffffff16815260200190815260200160002060009054906101000a900460ff16905092915050565b60007f01ffc9a7000000000000000000000000000000000000000000000000000000007bffffffffffffffffffffffffffffffffffffffffffffffffffffffff1916827bffffffffffffffffffffffffffffffffffffffffffffffffffffffff1916149050919050565b60008073ffffffffffffffffffffffffffffffffffffffff166002600084815260200190815260200160002060009054906101000a900473ffffffffffffffffffffffffffffffffffffffff1673ffffffffffffffffffffffffffffffffffffffff1614159050919050565b600033905090565b816004600083815260200190815260200160002060006101000a81548173ffffffffffffffffffffffffffffffffffffffff021916908373ffffffffffffffffffffffffffffffffffffffff160217905550808273ffffffffffffffffffffffffffffffffffffffff16610d24836106ad565b73ffffffffffffffffffffffffffffffffffffffff167f8c5be1e5ebec7d5bd14f71427d1e84f3dd0314c0f7b2291e5b200ac8c7c3b92560405160405180910390a45050565b6000610d7582610c3d565b610db4576040517f08c379a0000000000000000000000000000000000000000000000000000000008152600401610dab90612515565b60405180910390fd5b6000610dbf836106ad565b90508073ffffffffffffffffffffffffffffffffffffffff168473ffffffffffffffffffffffffffffffffffffffff161480610e2e57508373ffffffffffffffffffffffffffffffffffffffff16610e1684610490565b73ffffffffffffffffffffffffffffffffffffffff16145b80610e3f5750610e3e8185610b3f565b5b91505092915050565b8273ffffffffffffffffffffffffffffffffffffffff16610e68826106ad565b73ffffffffffffffffffffffffffffffffffffffff1614610ebe576040517f08c379a0000000000000000000000000000000000000000000000000000000008152600401610eb5906125a7565b60405180910390fd5b600073ffffffffffffffffffffffffffffffffffffffff168273ffffffffffffffffffffffffffffffffffffffff161415610f2e576040517f08c379a0000000000000000000000000000000000000000000000000000000008152600401610f2590612639565b60405180910390fd5b610f398383836116b9565b610f44600082610cb1565b6001600360008573ffffffffffffffffffffffffffffffffffffffff1673ffffffffffffffffffffffffffffffffffffffff1681526020019081526020016000206000828254610f949190612688565b925050819055506001600360008473ffffffffffffffffffffffffffffffffffffffff1673ffffffffffffffffffffffffffffffffffffffff1681526020019081526020016000206000828254610feb91906126bc565b92505081905550816002600083815260200190815260200160002060006101000a81548173ffffffffffffffffffffffffffffffffffffffff021916908373ffffffffffffffffffffffffffffffffffffffff160217905550808273ffffffffffffffffffffffffffffffffffffffff168473ffffffffffffffffffffffffffffffffffffffff167fddf252ad1be2c89b69c2b068fc378daa952ba7f163c4a11628f55a4df523b3ef60405160405180910390a46110aa8383836116be565b505050565b8173ffffffffffffffffffffffffffffffffffffffff168373ffffffffffffffffffffffffffffffffffffffff16141561111e576040517f08c379a00000000000000000000000000000000000000000000000000000000081526004016111159061275e565b60405180910390fd5b80600560008573ffffffffffffffffffffffffffffffffffffffff1673ffffffffffffffffffffffffffffffffffffffff16815260200190815260200160002060008473ffffffffffffffffffffffffffffffffffffffff1673ffffffffffffffffffffffffffffffffffffffff16815260200190815260200160002060006101000a81548160ff0219169083151502179055508173ffffffffffffffffffffffffffffffffffffffff168373ffffffffffffffffffffffffffffffffffffffff167f17307eab39ab6107e8899845ad3d59bd9653f200f220920489ca2b5937696c318360405161120f91906119c5565b60405180910390a3505050565b611227848484610e48565b611233848484846116c3565b611272576040517f08c379a0000000000000000000000000000000000000000000000000000000008152600401611269906127f0565b60405180910390fd5b50505050565b60606008805461128790612013565b80601f01602080910402602001604051908101604052809291908181526020018280546112b390612013565b80156113005780601f106112d557610100808354040283529160200191611300565b820191906000526020600020905b8154815290600101906020018083116112e357829003601f168201915b5050505050905090565b60606000821415611352576040518060400160405280600181526020017f30000000000000000000000000000000000000000000000000000000000000008152509050611466565b600082905060005b6000821461138457808061136d90612810565b915050600a8261137d9190612888565b915061135a565b60008167ffffffffffffffff8111156113a05761139f611ce6565b5b6040519080825280601f01601f1916602001820160405280156113d25781602001600182028036833780820191505090505b5090505b6000851461145f576001826113eb9190612688565b9150600a856113fa91906128b9565b603061140691906126bc565b60f81b81838151811061141c5761141b6128ea565b5b60200101907effffffffffffffffffffffffffffffffffffffffffffffffffffffffffffff1916908160001a905350600a856114589190612888565b94506113d6565b8093505050505b919050565b600073ffffffffffffffffffffffffffffffffffffffff168273ffffffffffffffffffffffffffffffffffffffff1614156114db576040517f08c379a00000000000000000000000000000000000000000000000000000000081526004016114d290612965565b60405180910390fd5b6114e481610c3d565b15611524576040517f08c379a000000000000000000000000000000000000000000000000000000000815260040161151b906129d1565b60405180910390fd5b611530600083836116b9565b6001600360008473ffffffffffffffffffffffffffffffffffffffff1673ffffffffffffffffffffffffffffffffffffffff168152602001908152602001600020600082825461158091906126bc565b92505081905550816002600083815260200190815260200160002060006101000a81548173ffffffffffffffffffffffffffffffffffffffff021916908373ffffffffffffffffffffffffffffffffffffffff160217905550808273ffffffffffffffffffffffffffffffffffffffff16600073ffffffffffffffffffffffffffffffffffffffff167fddf252ad1be2c89b69c2b068fc378daa952ba7f163c4a11628f55a4df523b3ef60405160405180910390a4611641600083836116be565b5050565b61164e82610c3d565b61168d576040517f08c379a000000000000000000000000000000000000000000000000000000000815260040161168490612a63565b60405180910390fd5b806006600084815260200190815260200160002090805190602001906116b492919061186e565b505050565b505050565b505050565b60006116e48473ffffffffffffffffffffffffffffffffffffffff1661184b565b1561183e578373ffffffffffffffffffffffffffffffffffffffff1663150b7a0261170d610ca9565b8786866040518563ffffffff1660e01b815260040161172f9493929190612ad8565b6020604051808303816000875af192505050801561176b57506040513d601f19601f820116820180604052508101906117689190612b39565b60015b6117ee573d806000811461179b576040519150601f19603f3d011682016040523d82523d6000602084013e6117a0565b606091505b506000815114156117e6576040517f08c379a00000000000000000000000000000000000000000000000000000000081526004016117dd906127f0565b60405180910390fd5b805181602001fd5b63150b7a0260e01b7bffffffffffffffffffffffffffffffffffffffffffffffffffffffff1916817bffffffffffffffffffffffffffffffffffffffffffffffffffffffff191614915050611843565b600190505b949350505050565b6000808273ffffffffffffffffffffffffffffffffffffffff163b119050919050565b82805461187a90612013565b90600052602060002090601f01602090048101928261189c57600085556118e3565b82601f106118b557805160ff19168380011785556118e3565b828001600101855582156118e3579182015b828111156118e25782518255916020019190600101906118c7565b5b5090506118f091906118f4565b5090565b5b8082111561190d5760008160009055506001016118f5565b5090565b6000604051905090565b600080fd5b600080fd5b60007fffffffff0000000000000000000000000000000000000000000000000000000082169050919050565b61195a81611925565b811461196557600080fd5b50565b60008135905061197781611951565b92915050565b6000602082840312156119935761199261191b565b5b60006119a184828501611968565b91505092915050565b60008115159050919050565b6119bf816119aa565b82525050565b60006020820190506119da60008301846119b6565b92915050565b600081519050919050565b600082825260208201905092915050565b60005b83811015611a1a5780820151818401526020810190506119ff565b83811115611a29576000848401525b50505050565b6000601f19601f8301169050919050565b6000611a4b826119e0565b611a5581856119eb565b9350611a658185602086016119fc565b611a6e81611a2f565b840191505092915050565b60006020820190508181036000830152611a938184611a40565b905092915050565b6000819050919050565b611aae81611a9b565b8114611ab957600080fd5b50565b600081359050611acb81611aa5565b92915050565b600060208284031215611ae757611ae661191b565b5b6000611af584828501611abc565b91505092915050565b600073ffffffffffffffffffffffffffffffffffffffff82169050919050565b6000611b2982611afe565b9050919050565b611b3981611b1e565b82525050565b6000602082019050611b546000830184611b30565b92915050565b611b6381611b1e565b8114611b6e57600080fd5b50565b600081359050611b8081611b5a565b92915050565b60008060408385031215611b9d57611b9c61191b565b5b6000611bab85828601611b71565b9250506020611bbc85828601611abc565b9150509250929050565b600080600060608486031215611bdf57611bde61191b565b5b6000611bed86828701611b71565b9350506020611bfe86828701611b71565b9250506040611c0f86828701611abc565b9150509250925092565b600060208284031215611c2f57611c2e61191b565b5b6000611c3d84828501611b71565b91505092915050565b611c4f81611a9b565b82525050565b6000602082019050611c6a6000830184611c46565b92915050565b611c79816119aa565b8114611c8457600080fd5b50565b600081359050611c9681611c70565b92915050565b60008060408385031215611cb357611cb261191b565b5b6000611cc185828601611b71565b9250506020611cd285828601611c87565b9150509250929050565b600080fd5b600080fd5b7f4e487b7100000000000000000000000000000000000000000000000000000000600052604160045260246000fd5b611d1e82611a2f565b810181811067ffffffffffffffff82111715611d3d57611d3c611ce6565b5b80604052505050565b6000611d50611911565b9050611d5c8282611d15565b919050565b600067ffffffffffffffff821115611d7c57611d7b611ce6565b5b611d8582611a2f565b9050602081019050919050565b82818337600083830152505050565b6000611db4611daf84611d61565b611d46565b905082815260208101848484011115611dd057611dcf611ce1565b5b611ddb848285611d92565b509392505050565b600082601f830112611df857611df7611cdc565b5b8135611e08848260208601611da1565b91505092915050565b60008060008060808587031215611e2b57611e2a61191b565b5b6000611e3987828801611b71565b9450506020611e4a87828801611b71565b9350506040611e5b87828801611abc565b925050606085013567ffffffffffffffff811115611e7c57611e7b611920565b5b611e8887828801611de3565b91505092959194509250565b600067ffffffffffffffff821115611eaf57611eae611ce6565b5b611eb882611a2f565b9050602081019050919050565b6000611ed8611ed384611e94565b611d46565b905082815260208101848484011115611ef457611ef3611ce1565b5b611eff848285611d92565b509392505050565b600082601f830112611f1c57611f1b611cdc565b5b8135611f2c848260208601611ec5565b91505092915050565b600080600060608486031215611f4e57611f4d61191b565b5b6000611f5c86828701611b71565b9350506020611f6d86828701611abc565b925050604084013567ffffffffffffffff811115611f8e57611f8d611920565b5b611f9a86828701611f07565b9150509250925092565b60008060408385031215611fbb57611fba61191b565b5b6000611fc985828601611b71565b9250506020611fda85828601611b71565b9150509250929050565b7f4e487b7100000000000000000000000000000000000000000000000000000000600052602260045260246000fd5b6000600282049050600182168061202b57607f821691505b6020821081141561203f5761203e611fe4565b5b50919050565b7f4552433732313a20617070726f76656420717565727920666f72206e6f6e657860008201527f697374656e7420746f6b656e0000000000000000000000000000000000000000602082015250565b60006120a1602c836119eb565b91506120ac82612045565b604082019050919050565b600060208201905081810360008301526120d081612094565b9050919050565b7f4552433732313a20617070726f76616c20746f2063757272656e74206f776e6560008201527f7200000000000000000000000000000000000000000000000000000000000000602082015250565b60006121336021836119eb565b915061213e826120d7565b604082019050919050565b6000602082019050818103600083015261216281612126565b9050919050565b7f4552433732313a20617070726f76652063616c6c6572206973206e6f74206f7760008201527f6e6572206e6f7220617070726f76656420666f7220616c6c0000000000000000602082015250565b60006121c56038836119eb565b91506121d082612169565b604082019050919050565b600060208201905081810360008301526121f4816121b8565b9050919050565b7f4552433732313a207472616e736665722063616c6c6572206973206e6f74206f60008201527f776e6572206e6f7220617070726f766564000000000000000000000000000000602082015250565b60006122576031836119eb565b9150612262826121fb565b604082019050919050565b600060208201905081810360008301526122868161224a565b9050919050565b7f4552433732313a206f776e657220717565727920666f72206e6f6e657869737460008201527f656e7420746f6b656e0000000000000000000000000000000000000000000000602082015250565b60006122e96029836119eb565b91506122f48261228d565b604082019050919050565b60006020820190508181036000830152612318816122dc565b9050919050565b7f4552433732313a2062616c616e636520717565727920666f7220746865207a6560008201527f726f206164647265737300000000000000000000000000000000000000000000602082015250565b600061237b602a836119eb565b91506123868261231f565b604082019050919050565b600060208201905081810360008301526123aa8161236e565b9050919050565b7f4552433732314d657461646174613a2055524920717565727920666f72206e6f60008201527f6e6578697374656e7420746f6b656e0000000000000000000000000000000000602082015250565b600061240d602f836119eb565b9150612418826123b1565b604082019050919050565b6000602082019050818103600083015261243c81612400565b9050919050565b600081905092915050565b6000612459826119e0565b6124638185612443565b93506124738185602086016119fc565b80840191505092915050565b600061248b828561244e565b9150612497828461244e565b91508190509392505050565b7f4552433732313a206f70657261746f7220717565727920666f72206e6f6e657860008201527f697374656e7420746f6b656e0000000000000000000000000000000000000000602082015250565b60006124ff602c836119eb565b915061250a826124a3565b604082019050919050565b6000602082019050818103600083015261252e816124f2565b9050919050565b7f4552433732313a207472616e736665722066726f6d20696e636f72726563742060008201527f6f776e6572000000000000000000000000000000000000000000000000000000602082015250565b60006125916025836119eb565b915061259c82612535565b604082019050919050565b600060208201905081810360008301526125c081612584565b9050919050565b7f4552433732313a207472616e7366657220746f20746865207a65726f2061646460008201527f7265737300000000000000000000000000000000000000000000000000000000602082015250565b60006126236024836119eb565b915061262e826125c7565b604082019050919050565b6000602082019050818103600083015261265281612616565b9050919050565b7f4e487b7100000000000000000000000000000000000000000000000000000000600052601160045260246000fd5b600061269382611a9b565b915061269e83611a9b565b9250828210156126b1576126b0612659565b5b828203905092915050565b60006126c782611a9b565b91506126d283611a9b565b9250827fffffffffffffffffffffffffffffffffffffffffffffffffffffffffffffffff0382111561270757612706612659565b5b828201905092915050565b7f4552433732313a20617070726f766520746f2063616c6c657200000000000000600082015250565b60006127486019836119eb565b915061275382612712565b602082019050919050565b600060208201905081810360008301526127778161273b565b9050919050565b7f4552433732313a207472616e7366657220746f206e6f6e20455243373231526560008201527f63656976657220696d706c656d656e7465720000000000000000000000000000602082015250565b60006127da6032836119eb565b91506127e58261277e565b604082019050919050565b60006020820190508181036000830152612809816127cd565b9050919050565b600061281b82611a9b565b91507fffffffffffffffffffffffffffffffffffffffffffffffffffffffffffffffff82141561284e5761284d612659565b5b600182019050919050565b7f4e487b7100000000000000000000000000000000000000000000000000000000600052601260045260246000fd5b600061289382611a9b565b915061289e83611a9b565b9250826128ae576128ad612859565b5b828204905092915050565b60006128c482611a9b565b91506128cf83611a9b565b9250826128df576128de612859565b5b828206905092915050565b7f4e487b7100000000000000000000000000000000000000000000000000000000600052603260045260246000fd5b7f4552433732313a206d696e7420746f20746865207a65726f2061646472657373600082015250565b600061294f6020836119eb565b915061295a82612919565b602082019050919050565b6000602082019050818103600083015261297e81612942565b9050919050565b7f4552433732313a20746f6b656e20616c7265616479206d696e74656400000000600082015250565b60006129bb601c836119eb565b91506129c682612985565b602082019050919050565b600060208201905081810360008301526129ea816129ae565b9050919050565b7f4552433732314d657461646174613a2055524920736574206f66206e6f6e657860008201527f697374656e7420746f6b656e0000000000000000000000000000000000000000602082015250565b6000612a4d602c836119eb565b9150612a58826129f1565b604082019050919050565b60006020820190508181036000830152612a7c81612a40565b9050919050565b600081519050919050565b600082825260208201905092915050565b6000612aaa82612a83565b612ab48185612a8e565b9350612ac48185602086016119fc565b612acd81611a2f565b840191505092915050565b6000608082019050612aed6000830187611b30565b612afa6020830186611b30565b612b076040830185611c46565b8181036060830152612b198184612a9f565b905095945050505050565b600081519050612b3381611951565b92915050565b600060208284031215612b4f57612b4e61191b565b5b6000612b5d84828501612b24565b9150509291505056fea264697066735822122028c7a718408fbc6ddb69b23ad9ec589c9f891a3bf0e374ad46c557b922cf767b64736f6c634300080c0033",
  "immutableReferences": {},
  "source": "// SPDX-License-Identifier: MIT\npragma solidity ^0.8.0;\n\nimport \"@openzeppelin/contracts/token/ERC721/ERC721.sol\";\nimport \"@openzeppelin/contracts/utils/Counters.sol\";\n\ncontract NFTMint is ERC721 {\n    using Strings for uint256;\n    \n    // Optional mapping for token URIs\n    mapping (uint256 => string) private _tokenURIs;\n\n    // just using to test\n    string private message = \"hello world\";\n\n    // Base URI\n    string private _baseURIextended;\n\n\n    constructor()\n        ERC721(\"RecipeNFT\", \"RCP\"){\n\n        }\n    \n    function _setTokenURI(uint256 tokenId, string memory _tokenURI) internal virtual {\n        require(_exists(tokenId), \"ERC721Metadata: URI set of nonexistent token\");\n        _tokenURIs[tokenId] = _tokenURI;\n    }\n\n    // just a test\n    function getMessage() public view returns(string memory) {\n        return message;\n    }\n    \n    function _baseURI() internal view virtual override returns (string memory) {\n        return _baseURIextended;\n    }\n    \n    function tokenURI(uint256 tokenId) public view virtual override returns (string memory) {\n        require(_exists(tokenId), \"ERC721Metadata: URI query for nonexistent token\");\n\n        string memory _tokenURI = _tokenURIs[tokenId];\n        string memory base = _baseURI();\n        \n        // If there is no base URI, return the token URI.\n        if (bytes(base).length == 0) {\n            return _tokenURI;\n        }\n        // If both are set, concatenate the baseURI and tokenURI (via abi.encodePacked).\n        if (bytes(_tokenURI).length > 0) {\n            return string(abi.encodePacked(base, _tokenURI));\n        }\n        // If there is a baseURI but no tokenURI, concatenate the tokenID to the baseURI.\n        return string(abi.encodePacked(base, tokenId.toString()));\n    }\n    \n    // note: may want to add access control (https://docs.openzeppelin.com/contracts/3.x/access-control) to restrict to MINTER_ROLE \n    function mint(\n        address _to,\n        uint256 _tokenId,\n        string memory tokenURI_\n    ) public {\n        _mint(_to, _tokenId);\n        _setTokenURI(_tokenId, tokenURI_);\n    }\n}",
  "sourcePath": "/Users/jjarzemsky/Desktop/Grad school/blockchain/final-project/nft-recipes/Truffle/contracts/NFTMint.sol",
  "compiler": {
    "name": "solc",
    "version": "0.8.12+commit.f00d7308.Emscripten.clang"
  },
  "schemaVersion": "3.4.5",
  "updatedAt": "2022-03-06T17:30:56.286Z",
  "networkType": "ethereum",
  "devdoc": {
    "kind": "dev",
    "methods": {
      "approve(address,uint256)": {
        "details": "See {IERC721-approve}."
      },
      "balanceOf(address)": {
        "details": "See {IERC721-balanceOf}."
      },
      "getApproved(uint256)": {
        "details": "See {IERC721-getApproved}."
      },
      "isApprovedForAll(address,address)": {
        "details": "See {IERC721-isApprovedForAll}."
      },
      "name()": {
        "details": "See {IERC721Metadata-name}."
      },
      "ownerOf(uint256)": {
        "details": "See {IERC721-ownerOf}."
      },
      "safeTransferFrom(address,address,uint256)": {
        "details": "See {IERC721-safeTransferFrom}."
      },
      "safeTransferFrom(address,address,uint256,bytes)": {
        "details": "See {IERC721-safeTransferFrom}."
      },
      "setApprovalForAll(address,bool)": {
        "details": "See {IERC721-setApprovalForAll}."
      },
      "supportsInterface(bytes4)": {
        "details": "See {IERC165-supportsInterface}."
      },
      "symbol()": {
        "details": "See {IERC721Metadata-symbol}."
      },
      "tokenURI(uint256)": {
        "details": "See {IERC721Metadata-tokenURI}."
      },
      "transferFrom(address,address,uint256)": {
        "details": "See {IERC721-transferFrom}."
      }
    },
    "version": 1
  },
  "userdoc": {
    "kind": "user",
    "methods": {},
    "version": 1
  }
}